{
  "contractName": "Isettle",
  "abi": [
    {
      "inputs": [],
      "payable": false,
      "stateMutability": "nonpayable",
      "type": "constructor"
    },
    {
      "anonymous": false,
      "inputs": [
        {
          "indexed": false,
          "internalType": "address",
          "name": "newAdmin",
          "type": "address"
        },
        {
          "indexed": true,
          "internalType": "uint256",
          "name": "adminIndex",
          "type": "uint256"
        }
      ],
      "name": "AdminAdded",
      "type": "event"
    },
    {
      "anonymous": false,
      "inputs": [
        {
          "indexed": false,
          "internalType": "address",
          "name": "admin",
          "type": "address"
        },
        {
          "indexed": true,
          "internalType": "uint256",
          "name": "adminIndex",
          "type": "uint256"
        }
      ],
      "name": "AdminRemoved",
      "type": "event"
    },
    {
      "anonymous": false,
      "inputs": [
        {
          "indexed": false,
          "internalType": "string",
          "name": "msg",
          "type": "string"
        },
        {
          "indexed": false,
          "internalType": "address",
          "name": "_caseId",
          "type": "address"
        },
        {
          "indexed": false,
          "internalType": "string",
          "name": "_caseSpeciality",
          "type": "string"
        },
        {
          "indexed": true,
          "internalType": "string",
          "name": "_complaints",
          "type": "string"
        }
      ],
      "name": "CaseAdded",
      "type": "event"
    },
    {
      "anonymous": false,
      "inputs": [
        {
          "indexed": false,
          "internalType": "address",
          "name": "expertAddress",
          "type": "address"
        },
        {
          "indexed": true,
          "internalType": "uint256",
          "name": "lawyersIndex",
          "type": "uint256"
        }
      ],
      "name": "ExpertRemoved",
      "type": "event"
    },
    {
      "anonymous": false,
      "inputs": [
        {
          "indexed": false,
          "internalType": "address",
          "name": "lawyerAddress",
          "type": "address"
        },
        {
          "indexed": true,
          "internalType": "uint256",
          "name": "lawyersIndex",
          "type": "uint256"
        }
      ],
      "name": "LawyerRemoved",
      "type": "event"
    },
    {
      "anonymous": false,
      "inputs": [
        {
          "indexed": false,
          "internalType": "string",
          "name": "msg",
          "type": "string"
        },
        {
          "indexed": false,
          "internalType": "address",
          "name": "_caseId",
          "type": "address"
        },
        {
          "indexed": false,
          "internalType": "string",
          "name": "_caseSpeciality",
          "type": "string"
        },
        {
          "indexed": true,
          "internalType": "string",
          "name": "_response",
          "type": "string"
        }
      ],
      "name": "ResponseAdded",
      "type": "event"
    },
    {
      "anonymous": false,
      "inputs": [
        {
          "indexed": false,
          "internalType": "string",
          "name": "msg",
          "type": "string"
        },
        {
          "indexed": true,
          "internalType": "string",
          "name": "fullName",
          "type": "string"
        },
        {
          "indexed": false,
          "internalType": "string",
          "name": "speciality",
          "type": "string"
        }
      ],
      "name": "expertsAdded",
      "type": "event"
    },
    {
      "anonymous": false,
      "inputs": [
        {
          "indexed": false,
          "internalType": "string",
          "name": "msg",
          "type": "string"
        },
        {
          "indexed": true,
          "internalType": "string",
          "name": "fullName",
          "type": "string"
        },
        {
          "indexed": false,
          "internalType": "string",
          "name": "speciality",
          "type": "string"
        },
        {
          "indexed": false,
          "internalType": "uint256",
          "name": "_supremeCourtNo",
          "type": "uint256"
        }
      ],
      "name": "lawyersAdded",
      "type": "event"
    },
    {
      "constant": true,
      "inputs": [],
      "name": "adminIndex",
      "outputs": [
        {
          "internalType": "uint16",
          "name": "",
          "type": "uint16"
        }
      ],
      "payable": false,
      "stateMutability": "view",
      "type": "function"
    },
    {
      "constant": true,
      "inputs": [
        {
          "internalType": "uint256",
          "name": "",
          "type": "uint256"
        }
      ],
      "name": "adminsList",
      "outputs": [
        {
          "internalType": "address",
          "name": "",
          "type": "address"
        }
      ],
      "payable": false,
      "stateMutability": "view",
      "type": "function"
    },
    {
      "constant": true,
      "inputs": [
        {
          "internalType": "address",
          "name": "",
          "type": "address"
        }
      ],
      "name": "adminsmap",
      "outputs": [
        {
          "internalType": "address",
          "name": "adminId",
          "type": "address"
        },
        {
          "internalType": "bool",
          "name": "isAdmin",
          "type": "bool"
        }
      ],
      "payable": false,
      "stateMutability": "view",
      "type": "function"
    },
    {
      "constant": true,
      "inputs": [],
      "name": "caseCount",
      "outputs": [
        {
          "internalType": "uint256",
          "name": "",
          "type": "uint256"
        }
      ],
      "payable": false,
      "stateMutability": "view",
      "type": "function"
    },
    {
      "constant": true,
      "inputs": [
        {
          "internalType": "uint256",
          "name": "",
          "type": "uint256"
        }
      ],
      "name": "caseList",
      "outputs": [
        {
          "internalType": "address",
          "name": "",
          "type": "address"
        }
      ],
      "payable": false,
      "stateMutability": "view",
      "type": "function"
    },
    {
      "constant": true,
      "inputs": [
        {
          "internalType": "address",
          "name": "",
          "type": "address"
        }
      ],
      "name": "casesmap",
      "outputs": [
        {
          "internalType": "address",
          "name": "caseId",
          "type": "address"
        },
        {
          "internalType": "string",
          "name": "complaints",
          "type": "string"
        },
        {
          "internalType": "string",
          "name": "response",
          "type": "string"
        },
        {
          "internalType": "string",
          "name": "settlement",
          "type": "string"
        },
        {
          "internalType": "string",
          "name": "caseSpeciality",
          "type": "string"
        },
        {
          "internalType": "bool",
          "name": "isSettled",
          "type": "bool"
        },
        {
          "internalType": "bool",
          "name": "caseExist",
          "type": "bool"
        }
      ],
      "payable": false,
      "stateMutability": "view",
      "type": "function"
    },
    {
      "constant": true,
      "inputs": [],
      "name": "casestatus",
      "outputs": [
        {
          "internalType": "enum Isettle.caseStatus",
          "name": "",
          "type": "uint8"
        }
      ],
      "payable": false,
      "stateMutability": "view",
      "type": "function"
    },
    {
      "constant": true,
      "inputs": [],
      "name": "claimantsIndex",
      "outputs": [
        {
          "internalType": "uint256",
          "name": "",
          "type": "uint256"
        }
      ],
      "payable": false,
      "stateMutability": "view",
      "type": "function"
    },
    {
      "constant": true,
      "inputs": [
        {
          "internalType": "uint256",
          "name": "",
          "type": "uint256"
        }
      ],
      "name": "claimantsList",
      "outputs": [
        {
          "internalType": "string",
          "name": "",
          "type": "string"
        }
      ],
      "payable": false,
      "stateMutability": "view",
      "type": "function"
    },
    {
      "constant": true,
      "inputs": [
        {
          "internalType": "address",
          "name": "",
          "type": "address"
        }
      ],
      "name": "complainantsmap",
      "outputs": [
        {
          "internalType": "address",
          "name": "complainantsId",
          "type": "address"
        },
        {
          "internalType": "string",
          "name": "fullName",
          "type": "string"
        },
        {
          "internalType": "string",
          "name": "email",
          "type": "string"
        },
        {
          "internalType": "uint256",
          "name": "phoneNumber",
          "type": "uint256"
        },
        {
          "internalType": "string",
          "name": "expertise",
          "type": "string"
        },
        {
          "internalType": "address",
          "name": "caseId",
          "type": "address"
        }
      ],
      "payable": false,
      "stateMutability": "view",
      "type": "function"
    },
    {
      "constant": true,
      "inputs": [],
      "name": "expertsIndex",
      "outputs": [
        {
          "internalType": "uint256",
          "name": "",
          "type": "uint256"
        }
      ],
      "payable": false,
      "stateMutability": "view",
      "type": "function"
    },
    {
      "constant": true,
      "inputs": [
        {
          "internalType": "uint256",
          "name": "",
          "type": "uint256"
        }
      ],
      "name": "expertsList",
      "outputs": [
        {
          "internalType": "address",
          "name": "",
          "type": "address"
        }
      ],
      "payable": false,
      "stateMutability": "view",
      "type": "function"
    },
    {
      "constant": true,
      "inputs": [
        {
          "internalType": "address",
          "name": "",
          "type": "address"
        }
      ],
      "name": "expertsmap",
      "outputs": [
        {
          "internalType": "address",
          "name": "expertsId",
          "type": "address"
        },
        {
          "internalType": "string",
          "name": "fullName",
          "type": "string"
        },
        {
          "internalType": "string",
          "name": "email",
          "type": "string"
        },
        {
          "internalType": "uint256",
          "name": "phoneNumber",
          "type": "uint256"
        },
        {
          "internalType": "string",
          "name": "speciality",
          "type": "string"
        },
        {
          "internalType": "bool",
          "name": "isExpert",
          "type": "bool"
        },
        {
          "internalType": "address",
          "name": "caseId",
          "type": "address"
        }
      ],
      "payable": false,
      "stateMutability": "view",
      "type": "function"
    },
    {
      "constant": true,
      "inputs": [],
      "name": "lawyersIndex",
      "outputs": [
        {
          "internalType": "uint256",
          "name": "",
          "type": "uint256"
        }
      ],
      "payable": false,
      "stateMutability": "view",
      "type": "function"
    },
    {
      "constant": true,
      "inputs": [
        {
          "internalType": "uint256",
          "name": "",
          "type": "uint256"
        }
      ],
      "name": "lawyersList",
      "outputs": [
        {
          "internalType": "uint256",
          "name": "",
          "type": "uint256"
        }
      ],
      "payable": false,
      "stateMutability": "view",
      "type": "function"
    },
    {
      "constant": true,
      "inputs": [
        {
          "internalType": "address",
          "name": "",
          "type": "address"
        }
      ],
      "name": "lawyersmap",
      "outputs": [
        {
          "internalType": "address",
          "name": "lawyersId",
          "type": "address"
        },
        {
          "internalType": "string",
          "name": "fullName",
          "type": "string"
        },
        {
          "internalType": "string",
          "name": "email",
          "type": "string"
        },
        {
          "internalType": "uint256",
          "name": "phoneNumber",
          "type": "uint256"
        },
        {
          "internalType": "string",
          "name": "speciality",
          "type": "string"
        },
        {
          "internalType": "uint256",
          "name": "supremeCourtNo",
          "type": "uint256"
        },
        {
          "internalType": "bool",
          "name": "isLawyer",
          "type": "bool"
        },
        {
          "internalType": "address",
          "name": "caseId",
          "type": "address"
        }
      ],
      "payable": false,
      "stateMutability": "view",
      "type": "function"
    },
    {
      "constant": true,
      "inputs": [],
      "name": "respondentsIndex",
      "outputs": [
        {
          "internalType": "uint256",
          "name": "",
          "type": "uint256"
        }
      ],
      "payable": false,
      "stateMutability": "view",
      "type": "function"
    },
    {
      "constant": true,
      "inputs": [
        {
          "internalType": "uint256",
          "name": "",
          "type": "uint256"
        }
      ],
      "name": "respondentsList",
      "outputs": [
        {
          "internalType": "string",
          "name": "",
          "type": "string"
        }
      ],
      "payable": false,
      "stateMutability": "view",
      "type": "function"
    },
    {
      "constant": true,
      "inputs": [
        {
          "internalType": "address",
          "name": "",
          "type": "address"
        }
      ],
      "name": "respondentsmap",
      "outputs": [
        {
          "internalType": "address",
          "name": "respondentsId",
          "type": "address"
        },
        {
          "internalType": "string",
          "name": "fullName",
          "type": "string"
        },
        {
          "internalType": "uint256",
          "name": "phoneNumber",
          "type": "uint256"
        },
        {
          "internalType": "string",
          "name": "email",
          "type": "string"
        },
        {
          "internalType": "string",
          "name": "expertise",
          "type": "string"
        },
        {
          "internalType": "address",
          "name": "caseId",
          "type": "address"
        }
      ],
      "payable": false,
      "stateMutability": "view",
      "type": "function"
    },
    {
      "constant": false,
      "inputs": [
        {
          "internalType": "address",
          "name": "_newAdmin",
          "type": "address"
        }
      ],
      "name": "addAdmin",
      "outputs": [],
      "payable": false,
      "stateMutability": "nonpayable",
      "type": "function"
    },
    {
      "constant": false,
      "inputs": [
        {
          "internalType": "address",
          "name": "_lawyersId",
          "type": "address"
        },
        {
          "internalType": "string",
          "name": "_fullName",
          "type": "string"
        },
        {
          "internalType": "string",
          "name": "_email",
          "type": "string"
        },
        {
          "internalType": "uint256",
          "name": "_phoneNumber",
          "type": "uint256"
        },
        {
          "internalType": "string",
          "name": "_speciality",
          "type": "string"
        },
        {
          "internalType": "uint256",
          "name": "_supremeCourtNo",
          "type": "uint256"
        }
      ],
      "name": "addLawyer",
      "outputs": [],
      "payable": false,
      "stateMutability": "nonpayable",
      "type": "function"
    },
    {
      "constant": false,
      "inputs": [
        {
          "internalType": "address",
          "name": "_expertsId",
          "type": "address"
        },
        {
          "internalType": "string",
          "name": "_fullName",
          "type": "string"
        },
        {
          "internalType": "string",
          "name": "_email",
          "type": "string"
        },
        {
          "internalType": "uint256",
          "name": "_phoneNumber",
          "type": "uint256"
        },
        {
          "internalType": "string",
          "name": "_speciality",
          "type": "string"
        }
      ],
      "name": "addExpert",
      "outputs": [],
      "payable": false,
      "stateMutability": "nonpayable",
      "type": "function"
    },
    {
      "constant": false,
      "inputs": [
        {
          "internalType": "address",
          "name": "_complainantsId",
          "type": "address"
        },
        {
          "internalType": "string",
          "name": "_fullName",
          "type": "string"
        },
        {
          "internalType": "string",
          "name": "_email",
          "type": "string"
        },
        {
          "internalType": "uint256",
          "name": "_phoneNumber",
          "type": "uint256"
        }
      ],
      "name": "addComplainant",
      "outputs": [],
      "payable": false,
      "stateMutability": "nonpayable",
      "type": "function"
    },
    {
      "constant": false,
      "inputs": [
        {
          "internalType": "address",
          "name": "_respondentsId",
          "type": "address"
        },
        {
          "internalType": "string",
          "name": "_fullName",
          "type": "string"
        },
        {
          "internalType": "uint256",
          "name": "_phoneNumber",
          "type": "uint256"
        },
        {
          "internalType": "string",
          "name": "_email",
          "type": "string"
        }
      ],
      "name": "addRespondents",
      "outputs": [],
      "payable": false,
      "stateMutability": "nonpayable",
      "type": "function"
    },
    {
      "constant": false,
      "inputs": [
        {
          "internalType": "address",
          "name": "_adminAddress",
          "type": "address"
        }
      ],
      "name": "removeAdmin",
      "outputs": [],
      "payable": false,
      "stateMutability": "nonpayable",
      "type": "function"
    },
    {
      "constant": false,
      "inputs": [
        {
          "internalType": "address",
          "name": "_lawyerAddress",
          "type": "address"
        }
      ],
      "name": "removeLawyer",
      "outputs": [],
      "payable": false,
      "stateMutability": "nonpayable",
      "type": "function"
    },
    {
      "constant": false,
      "inputs": [
        {
          "internalType": "address",
          "name": "_expertAddress",
          "type": "address"
        }
      ],
      "name": "removeExpert",
      "outputs": [],
      "payable": false,
      "stateMutability": "nonpayable",
      "type": "function"
    },
    {
      "constant": false,
      "inputs": [
        {
          "internalType": "address",
          "name": "_caseId",
          "type": "address"
        },
        {
          "internalType": "string",
          "name": "_caseSpeciality",
          "type": "string"
        },
        {
          "internalType": "string",
          "name": "_complaint",
          "type": "string"
        }
      ],
      "name": "lodgeComplaint",
      "outputs": [],
      "payable": false,
      "stateMutability": "nonpayable",
      "type": "function"
    },
    {
      "constant": false,
      "inputs": [
        {
          "internalType": "address",
          "name": "_caseId",
          "type": "address"
        },
        {
          "internalType": "string",
          "name": "_caseSpeciality",
          "type": "string"
        },
        {
          "internalType": "string",
          "name": "_response",
          "type": "string"
        }
      ],
      "name": "respondToComplaint",
      "outputs": [],
      "payable": false,
      "stateMutability": "nonpayable",
      "type": "function"
    },
    {
      "constant": false,
      "inputs": [
        {
          "internalType": "address",
          "name": "_caseId",
          "type": "address"
        },
        {
          "internalType": "string",
          "name": "_caseSpeciality",
          "type": "string"
        },
        {
          "internalType": "string",
          "name": "_complaint",
          "type": "string"
        }
      ],
      "name": "analyseCase",
      "outputs": [],
      "payable": false,
      "stateMutability": "nonpayable",
      "type": "function"
    },
    {
      "constant": false,
      "inputs": [
        {
          "internalType": "address",
          "name": "_caseId",
          "type": "address"
        },
        {
          "internalType": "string",
          "name": "_caseSpeciality",
          "type": "string"
        },
        {
          "internalType": "string",
          "name": "_complaint",
          "type": "string"
        }
      ],
      "name": "resolveDispute",
      "outputs": [],
      "payable": false,
      "stateMutability": "nonpayable",
      "type": "function"
    }
  ],
  "bytecode": "0x60806040523480156200001157600080fd5b50336000806101000a81548173ffffffffffffffffffffffffffffffffffffffff021916908373ffffffffffffffffffffffffffffffffffffffff160217905550620000846000809054906101000a900473ffffffffffffffffffffffffffffffffffffffff16620000af60201b60201c565b6000600d60006101000a81548160ff02191690836003811115620000a457fe5b021790555062000490565b6000809054906101000a900473ffffffffffffffffffffffffffffffffffffffff1673ffffffffffffffffffffffffffffffffffffffff163373ffffffffffffffffffffffffffffffffffffffff161462000172576040517f08c379a000000000000000000000000000000000000000000000000000000000815260040180806020018281038252601b8152602001807f4163636573732064656e6965642c6e6f7420746865206f776e6572000000000081525060200191505060405180910390fd5b6200017c6200045e565b60001515601360008473ffffffffffffffffffffffffffffffffffffffff1673ffffffffffffffffffffffffffffffffffffffff16815260200190815260200160002060000160149054906101000a900460ff1615151462000246576040517f08c379a00000000000000000000000000000000000000000000000000000000081526004018080602001828103825260138152602001807f41646d696e20616c72656164792065786973740000000000000000000000000081525060200191505060405180910390fd5b80601360008473ffffffffffffffffffffffffffffffffffffffff1673ffffffffffffffffffffffffffffffffffffffff16815260200190815260200160002060008201518160000160006101000a81548173ffffffffffffffffffffffffffffffffffffffff021916908373ffffffffffffffffffffffffffffffffffffffff16021790555060208201518160000160146101000a81548160ff0219169083151502179055509050506001601360008473ffffffffffffffffffffffffffffffffffffffff1673ffffffffffffffffffffffffffffffffffffffff16815260200190815260200160002060000160146101000a81548160ff0219169083151502179055506001600760008282829054906101000a900461ffff160192506101000a81548161ffff021916908361ffff16021790555060018290806001815401808255809150509060018203906000526020600020016000909192909190916101000a81548173ffffffffffffffffffffffffffffffffffffffff021916908373ffffffffffffffffffffffffffffffffffffffff16021790555050600760009054906101000a900461ffff1661ffff167f723c2b747529ca7f5eb53a74808f4a8b9bf264f0fc450fd904900151da74548a83604051808273ffffffffffffffffffffffffffffffffffffffff1673ffffffffffffffffffffffffffffffffffffffff16815260200191505060405180910390a25050565b6040518060400160405280600073ffffffffffffffffffffffffffffffffffffffff1681526020016000151581525090565b615da880620004a06000396000f3fe608060405234801561001057600080fd5b50600436106101e55760003560e01c8063a214a8f41161010f578063dcd4d2fe116100a2578063ec1ea10911610071578063ec1ea10914611bb4578063ee7adaee14611c5b578063f4da2a1314611c79578063fa3fd34114611e8c576101e5565b8063dcd4d2fe14611953578063dfd8453b146119e2578063e37c4eb714611a24578063e64a320414611a42576101e5565b8063c01ac866116100de578063c01ac866146113a4578063d9e9256f146115a6578063da2d7e9514611718578063dcaedd2114611736576101e5565b8063a214a8f414610fda578063a47052941461114c578063b2484e7c146111ba578063bb69350d14611336576101e5565b80636db99598116101875780638702f2ac116101565780638702f2ac14610bb45780638856022514610bda5780639aa64ceb14610d4c5780639c7ffdb614610f96576101e5565b80636db995981461077957806370480275146107e757806375a4d08c1461082b5780637b2b0232146109a7576101e5565b80631c0bbf55116101c35780631c0bbf55146103015780632f59a5ce1461031f57806365ee620f146103635780636bc8f13014610565576101e5565b806305612f9d146101ea578063156668f7146102165780631785f53c146102bd575b600080fd5b6101f2611eaa565b6040518082600381111561020257fe5b60ff16815260200191505060405180910390f35b6102426004803603602081101561022c57600080fd5b8101908080359060200190929190505050611ebd565b6040518080602001828103825283818151815260200191508051906020019080838360005b83811015610282578082015181840152602081019050610267565b50505050905090810190601f1680156102af5780820380516001836020036101000a031916815260200191505b509250505060405180910390f35b6102ff600480360360208110156102d357600080fd5b81019080803573ffffffffffffffffffffffffffffffffffffffff169060200190929190505050611f76565b005b610309612377565b6040518082815260200191505060405180910390f35b6103616004803603602081101561033557600080fd5b81019080803573ffffffffffffffffffffffffffffffffffffffff16906020019092919050505061237d565b005b6103a56004803603602081101561037957600080fd5b81019080803573ffffffffffffffffffffffffffffffffffffffff1690602001909291905050506127b9565b604051808773ffffffffffffffffffffffffffffffffffffffff1673ffffffffffffffffffffffffffffffffffffffff1681526020018060200180602001868152602001806020018573ffffffffffffffffffffffffffffffffffffffff1673ffffffffffffffffffffffffffffffffffffffff168152602001848103845289818151815260200191508051906020019080838360005b8381101561045757808201518184015260208101905061043c565b50505050905090810190601f1680156104845780820380516001836020036101000a031916815260200191505b50848103835288818151815260200191508051906020019080838360005b838110156104bd5780820151818401526020810190506104a2565b50505050905090810190601f1680156104ea5780820380516001836020036101000a031916815260200191505b50848103825286818151815260200191508051906020019080838360005b83811015610523578082015181840152602081019050610508565b50505050905090810190601f1680156105505780820380516001836020036101000a031916815260200191505b50995050505050505050505060405180910390f35b6105a76004803603602081101561057b57600080fd5b81019080803573ffffffffffffffffffffffffffffffffffffffff1690602001909291905050506129fd565b604051808973ffffffffffffffffffffffffffffffffffffffff1673ffffffffffffffffffffffffffffffffffffffff168152602001806020018060200188815260200180602001878152602001861515151581526020018573ffffffffffffffffffffffffffffffffffffffff1673ffffffffffffffffffffffffffffffffffffffff16815260200184810384528b818151815260200191508051906020019080838360005b8381101561066957808201518184015260208101905061064e565b50505050905090810190601f1680156106965780820380516001836020036101000a031916815260200191505b5084810383528a818151815260200191508051906020019080838360005b838110156106cf5780820151818401526020810190506106b4565b50505050905090810190601f1680156106fc5780820380516001836020036101000a031916815260200191505b50848103825288818151815260200191508051906020019080838360005b8381101561073557808201518184015260208101905061071a565b50505050905090810190601f1680156107625780820380516001836020036101000a031916815260200191505b509b50505050505050505050505060405180910390f35b6107a56004803603602081101561078f57600080fd5b8101908080359060200190929190505050612c5a565b604051808273ffffffffffffffffffffffffffffffffffffffff1673ffffffffffffffffffffffffffffffffffffffff16815260200191505060405180910390f35b610829600480360360208110156107fd57600080fd5b81019080803573ffffffffffffffffffffffffffffffffffffffff169060200190929190505050612c96565b005b6109a56004803603608081101561084157600080fd5b81019080803573ffffffffffffffffffffffffffffffffffffffff1690602001909291908035906020019064010000000081111561087e57600080fd5b82018360208201111561089057600080fd5b803590602001918460018302840111640100000000831117156108b257600080fd5b91908080601f016020809104026020016040519081016040528093929190818152602001838380828437600081840152601f19601f820116905080830192505050505050509192919290803590602001909291908035906020019064010000000081111561091f57600080fd5b82018360208201111561093157600080fd5b8035906020019184600183028401116401000000008311171561095357600080fd5b91908080601f016020809104026020016040519081016040528093929190818152602001838380828437600081840152601f19601f820116905080830192505050505050509192919290505050613041565b005b6109e9600480360360208110156109bd57600080fd5b81019080803573ffffffffffffffffffffffffffffffffffffffff1690602001909291905050506131b6565b604051808873ffffffffffffffffffffffffffffffffffffffff1673ffffffffffffffffffffffffffffffffffffffff168152602001806020018060200187815260200180602001861515151581526020018573ffffffffffffffffffffffffffffffffffffffff1673ffffffffffffffffffffffffffffffffffffffff16815260200184810384528a818151815260200191508051906020019080838360005b83811015610aa5578082015181840152602081019050610a8a565b50505050905090810190601f168015610ad25780820380516001836020036101000a031916815260200191505b50848103835289818151815260200191508051906020019080838360005b83811015610b0b578082015181840152602081019050610af0565b50505050905090810190601f168015610b385780820380516001836020036101000a031916815260200191505b50848103825287818151815260200191508051906020019080838360005b83811015610b71578082015181840152602081019050610b56565b50505050905090810190601f168015610b9e5780820380516001836020036101000a031916815260200191505b509a505050505050505050505060405180910390f35b610bbc61340d565b604051808261ffff1661ffff16815260200191505060405180910390f35b610d4a60048036036060811015610bf057600080fd5b81019080803573ffffffffffffffffffffffffffffffffffffffff16906020019092919080359060200190640100000000811115610c2d57600080fd5b820183602082011115610c3f57600080fd5b80359060200191846001830284011164010000000083111715610c6157600080fd5b91908080601f016020809104026020016040519081016040528093929190818152602001838380828437600081840152601f19601f82011690508083019250505050505050919291929080359060200190640100000000811115610cc457600080fd5b820183602082011115610cd657600080fd5b80359060200191846001830284011164010000000083111715610cf857600080fd5b91908080601f016020809104026020016040519081016040528093929190818152602001838380828437600081840152601f19601f820116905080830192505050505050509192919290505050613421565b005b610d8e60048036036020811015610d6257600080fd5b81019080803573ffffffffffffffffffffffffffffffffffffffff1690602001909291905050506137f9565b604051808873ffffffffffffffffffffffffffffffffffffffff1673ffffffffffffffffffffffffffffffffffffffff16815260200180602001806020018060200180602001871515151581526020018615151515815260200185810385528b818151815260200191508051906020019080838360005b83811015610e20578082015181840152602081019050610e05565b50505050905090810190601f168015610e4d5780820380516001836020036101000a031916815260200191505b5085810384528a818151815260200191508051906020019080838360005b83811015610e86578082015181840152602081019050610e6b565b50505050905090810190601f168015610eb35780820380516001836020036101000a031916815260200191505b50858103835289818151815260200191508051906020019080838360005b83811015610eec578082015181840152602081019050610ed1565b50505050905090810190601f168015610f195780820380516001836020036101000a031916815260200191505b50858103825288818151815260200191508051906020019080838360005b83811015610f52578082015181840152602081019050610f37565b50505050905090810190601f168015610f7f5780820380516001836020036101000a031916815260200191505b509b50505050505050505050505060405180910390f35b610fd860048036036020811015610fac57600080fd5b81019080803573ffffffffffffffffffffffffffffffffffffffff169060200190929190505050613ad5565b005b61114a60048036036060811015610ff057600080fd5b81019080803573ffffffffffffffffffffffffffffffffffffffff1690602001909291908035906020019064010000000081111561102d57600080fd5b82018360208201111561103f57600080fd5b8035906020019184600183028401116401000000008311171561106157600080fd5b91908080601f016020809104026020016040519081016040528093929190818152602001838380828437600081840152601f19601f820116905080830192505050505050509192919290803590602001906401000000008111156110c457600080fd5b8201836020820111156110d657600080fd5b803590602001918460018302840111640100000000831117156110f857600080fd5b91908080601f016020809104026020016040519081016040528093929190818152602001838380828437600081840152601f19601f820116905080830192505050505050509192919290505050613f19565b005b6111786004803603602081101561116257600080fd5b81019080803590602001909291905050506143b3565b604051808273ffffffffffffffffffffffffffffffffffffffff1673ffffffffffffffffffffffffffffffffffffffff16815260200191505060405180910390f35b611334600480360360808110156111d057600080fd5b81019080803573ffffffffffffffffffffffffffffffffffffffff1690602001909291908035906020019064010000000081111561120d57600080fd5b82018360208201111561121f57600080fd5b8035906020019184600183028401116401000000008311171561124157600080fd5b91908080601f016020809104026020016040519081016040528093929190818152602001838380828437600081840152601f19601f820116905080830192505050505050509192919290803590602001906401000000008111156112a457600080fd5b8201836020820111156112b657600080fd5b803590602001918460018302840111640100000000831117156112d857600080fd5b91908080601f016020809104026020016040519081016040528093929190818152602001838380828437600081840152601f19601f820116905080830192505050505050509192919290803590602001909291905050506143ef565b005b6113626004803603602081101561134c57600080fd5b8101908080359060200190929190505050614610565b604051808273ffffffffffffffffffffffffffffffffffffffff1673ffffffffffffffffffffffffffffffffffffffff16815260200191505060405180910390f35b6113e6600480360360208110156113ba57600080fd5b81019080803573ffffffffffffffffffffffffffffffffffffffff16906020019092919050505061464c565b604051808773ffffffffffffffffffffffffffffffffffffffff1673ffffffffffffffffffffffffffffffffffffffff1681526020018060200186815260200180602001806020018573ffffffffffffffffffffffffffffffffffffffff1673ffffffffffffffffffffffffffffffffffffffff168152602001848103845289818151815260200191508051906020019080838360005b8381101561149857808201518184015260208101905061147d565b50505050905090810190601f1680156114c55780820380516001836020036101000a031916815260200191505b50848103835287818151815260200191508051906020019080838360005b838110156114fe5780820151818401526020810190506114e3565b50505050905090810190601f16801561152b5780820380516001836020036101000a031916815260200191505b50848103825286818151815260200191508051906020019080838360005b83811015611564578082015181840152602081019050611549565b50505050905090810190601f1680156115915780820380516001836020036101000a031916815260200191505b50995050505050505050505060405180910390f35b611716600480360360608110156115bc57600080fd5b81019080803573ffffffffffffffffffffffffffffffffffffffff169060200190929190803590602001906401000000008111156115f957600080fd5b82018360208201111561160b57600080fd5b8035906020019184600183028401116401000000008311171561162d57600080fd5b91908080601f016020809104026020016040519081016040528093929190818152602001838380828437600081840152601f19601f8201169050808301925050505050505091929192908035906020019064010000000081111561169057600080fd5b8201836020820111156116a257600080fd5b803590602001918460018302840111640100000000831117156116c457600080fd5b91908080601f016020809104026020016040519081016040528093929190818152602001838380828437600081840152601f19601f820116905080830192505050505050509192919290505050614890565b005b611720614b9f565b6040518082815260200191505060405180910390f35b611951600480360360c081101561174c57600080fd5b81019080803573ffffffffffffffffffffffffffffffffffffffff1690602001909291908035906020019064010000000081111561178957600080fd5b82018360208201111561179b57600080fd5b803590602001918460018302840111640100000000831117156117bd57600080fd5b91908080601f016020809104026020016040519081016040528093929190818152602001838380828437600081840152601f19601f8201169050808301925050505050505091929192908035906020019064010000000081111561182057600080fd5b82018360208201111561183257600080fd5b8035906020019184600183028401116401000000008311171561185457600080fd5b91908080601f016020809104026020016040519081016040528093929190818152602001838380828437600081840152601f19601f82011690508083019250505050505050919291929080359060200190929190803590602001906401000000008111156118c157600080fd5b8201836020820111156118d357600080fd5b803590602001918460018302840111640100000000831117156118f557600080fd5b91908080601f016020809104026020016040519081016040528093929190818152602001838380828437600081840152601f19601f82011690508083019250505050505050919291929080359060200190929190505050614ba5565b005b6119956004803603602081101561196957600080fd5b81019080803573ffffffffffffffffffffffffffffffffffffffff169060200190929190505050615013565b604051808373ffffffffffffffffffffffffffffffffffffffff1673ffffffffffffffffffffffffffffffffffffffff168152602001821515151581526020019250505060405180910390f35b611a0e600480360360208110156119f857600080fd5b8101908080359060200190929190505050615064565b6040518082815260200191505060405180910390f35b611a2c615085565b6040518082815260200191505060405180910390f35b611bb260048036036060811015611a5857600080fd5b81019080803573ffffffffffffffffffffffffffffffffffffffff16906020019092919080359060200190640100000000811115611a9557600080fd5b820183602082011115611aa757600080fd5b80359060200191846001830284011164010000000083111715611ac957600080fd5b91908080601f016020809104026020016040519081016040528093929190818152602001838380828437600081840152601f19601f82011690508083019250505050505050919291929080359060200190640100000000811115611b2c57600080fd5b820183602082011115611b3e57600080fd5b80359060200191846001830284011164010000000083111715611b6057600080fd5b91908080601f016020809104026020016040519081016040528093929190818152602001838380828437600081840152601f19601f82011690508083019250505050505050919291929050505061508b565b005b611be060048036036020811015611bca57600080fd5b8101908080359060200190929190505050615525565b6040518080602001828103825283818151815260200191508051906020019080838360005b83811015611c20578082015181840152602081019050611c05565b50505050905090810190601f168015611c4d5780820380516001836020036101000a031916815260200191505b509250505060405180910390f35b611c636155de565b6040518082815260200191505060405180910390f35b611e8a600480360360a0811015611c8f57600080fd5b81019080803573ffffffffffffffffffffffffffffffffffffffff16906020019092919080359060200190640100000000811115611ccc57600080fd5b820183602082011115611cde57600080fd5b80359060200191846001830284011164010000000083111715611d0057600080fd5b91908080601f016020809104026020016040519081016040528093929190818152602001838380828437600081840152601f19601f82011690508083019250505050505050919291929080359060200190640100000000811115611d6357600080fd5b820183602082011115611d7557600080fd5b80359060200191846001830284011164010000000083111715611d9757600080fd5b91908080601f016020809104026020016040519081016040528093929190818152602001838380828437600081840152601f19601f8201169050808301925050505050505091929192908035906020019092919080359060200190640100000000811115611e0457600080fd5b820183602082011115611e1657600080fd5b80359060200191846001830284011164010000000083111715611e3857600080fd5b91908080601f016020809104026020016040519081016040528093929190818152602001838380828437600081840152601f19601f8201169050808301925050505050505091929192905050506155e4565b005b611e94615a13565b6040518082815260200191505060405180910390f35b600d60009054906101000a900460ff1681565b60058181548110611eca57fe5b906000526020600020016000915090508054600181600116156101000203166002900480601f016020809104026020016040519081016040528092919081815260200182805460018160011615610100020316600290048015611f6e5780601f10611f4357610100808354040283529160200191611f6e565b820191906000526020600020905b815481529060010190602001808311611f5157829003601f168201915b505050505081565b6000809054906101000a900473ffffffffffffffffffffffffffffffffffffffff1673ffffffffffffffffffffffffffffffffffffffff163373ffffffffffffffffffffffffffffffffffffffff1614612038576040517f08c379a000000000000000000000000000000000000000000000000000000000815260040180806020018281038252601b8152602001807f4163636573732064656e6965642c6e6f7420746865206f776e6572000000000081525060200191505060405180910390fd5b60011515601360008373ffffffffffffffffffffffffffffffffffffffff1673ffffffffffffffffffffffffffffffffffffffff16815260200190815260200160002060000160149054906101000a900460ff16151514612101576040517f08c379a000000000000000000000000000000000000000000000000000000000815260040180806020018281038252601d8152602001807f536f7272792c61646472657373206973206e6f7420616e2061646d696e00000081525060200191505060405180910390fd5b6001600760009054906101000a900461ffff1661ffff161161218b576040517f08c379a000000000000000000000000000000000000000000000000000000000815260040180806020018281038252601d8152602001807f41746c65617374206f6e652061646d696e20697320726571756972656400000081525060200191505060405180910390fd5b6000809054906101000a900473ffffffffffffffffffffffffffffffffffffffff1673ffffffffffffffffffffffffffffffffffffffff168173ffffffffffffffffffffffffffffffffffffffff16141561224e576040517f08c379a00000000000000000000000000000000000000000000000000000000081526004018080602001828103825260178152602001807f6f776e65722063616e6e6f742062652072656d6f76656400000000000000000081525060200191505060405180910390fd5b601360008273ffffffffffffffffffffffffffffffffffffffff1673ffffffffffffffffffffffffffffffffffffffff168152602001908152602001600020600080820160006101000a81549073ffffffffffffffffffffffffffffffffffffffff02191690556000820160146101000a81549060ff021916905550506001600760008282829054906101000a900461ffff160392506101000a81548161ffff021916908361ffff160217905550600760009054906101000a900461ffff1661ffff167fa0726c73cf6ad18ddb855ba65d1ddd4d7fd37d320f4e52f6b154c13d386f5fd982604051808273ffffffffffffffffffffffffffffffffffffffff1673ffffffffffffffffffffffffffffffffffffffff16815260200191505060405180910390a250565b600c5481565b6000809054906101000a900473ffffffffffffffffffffffffffffffffffffffff1673ffffffffffffffffffffffffffffffffffffffff163373ffffffffffffffffffffffffffffffffffffffff161461243f576040517f08c379a000000000000000000000000000000000000000000000000000000000815260040180806020018281038252601b8152602001807f4163636573732064656e6965642c6e6f7420746865206f776e6572000000000081525060200191505060405180910390fd5b60011515600f60008373ffffffffffffffffffffffffffffffffffffffff1673ffffffffffffffffffffffffffffffffffffffff16815260200190815260200160002060050160009054906101000a900460ff16151514612508576040517f08c379a000000000000000000000000000000000000000000000000000000000815260040180806020018281038252601e8152602001807f536f7272792c61646472657373206973206e6f7420616e20657870657274000081525060200191505060405180910390fd5b6001600b5411612580576040517f08c379a000000000000000000000000000000000000000000000000000000000815260040180806020018281038252601e8152602001807f41746c65617374206f6e6520657870657274206973207265717569726564000081525060200191505060405180910390fd5b6000809054906101000a900473ffffffffffffffffffffffffffffffffffffffff1673ffffffffffffffffffffffffffffffffffffffff168173ffffffffffffffffffffffffffffffffffffffff161415612643576040517f08c379a00000000000000000000000000000000000000000000000000000000081526004018080602001828103825260178152602001807f6f776e65722063616e6e6f742062652072656d6f76656400000000000000000081525060200191505060405180910390fd5b600f60008273ffffffffffffffffffffffffffffffffffffffff1673ffffffffffffffffffffffffffffffffffffffff168152602001908152602001600020600080820160006101000a81549073ffffffffffffffffffffffffffffffffffffffff02191690556001820160006126ba9190615a19565b6002820160006126ca9190615a19565b60038201600090556004820160006126e29190615a19565b6005820160006101000a81549060ff02191690556005820160016101000a81549073ffffffffffffffffffffffffffffffffffffffff021916905550506001600760008282829054906101000a900461ffff160392506101000a81548161ffff021916908361ffff160217905550600b547f38c0987b75c535ef3ca8d7df9faabf4162774f6fca99db25bdd3f682a935328282604051808273ffffffffffffffffffffffffffffffffffffffff1673ffffffffffffffffffffffffffffffffffffffff16815260200191505060405180910390a250565b60116020528060005260406000206000915090508060000160009054906101000a900473ffffffffffffffffffffffffffffffffffffffff1690806001018054600181600116156101000203166002900480601f01602080910402602001604051908101604052809291908181526020018280546001816001161561010002031660029004801561288b5780601f106128605761010080835404028352916020019161288b565b820191906000526020600020905b81548152906001019060200180831161286e57829003601f168201915b505050505090806002018054600181600116156101000203166002900480601f0160208091040260200160405190810160405280929190818152602001828054600181600116156101000203166002900480156129295780601f106128fe57610100808354040283529160200191612929565b820191906000526020600020905b81548152906001019060200180831161290c57829003601f168201915b505050505090806003015490806004018054600181600116156101000203166002900480601f0160208091040260200160405190810160405280929190818152602001828054600181600116156101000203166002900480156129cd5780601f106129a2576101008083540402835291602001916129cd565b820191906000526020600020905b8154815290600101906020018083116129b057829003601f168201915b5050505050908060050160009054906101000a900473ffffffffffffffffffffffffffffffffffffffff16905086565b600e6020528060005260406000206000915090508060000160009054906101000a900473ffffffffffffffffffffffffffffffffffffffff1690806001018054600181600116156101000203166002900480601f016020809104026020016040519081016040528092919081815260200182805460018160011615610100020316600290048015612acf5780601f10612aa457610100808354040283529160200191612acf565b820191906000526020600020905b815481529060010190602001808311612ab257829003601f168201915b505050505090806002018054600181600116156101000203166002900480601f016020809104026020016040519081016040528092919081815260200182805460018160011615610100020316600290048015612b6d5780601f10612b4257610100808354040283529160200191612b6d565b820191906000526020600020905b815481529060010190602001808311612b5057829003601f168201915b505050505090806003015490806004018054600181600116156101000203166002900480601f016020809104026020016040519081016040528092919081815260200182805460018160011615610100020316600290048015612c115780601f10612be657610100808354040283529160200191612c11565b820191906000526020600020905b815481529060010190602001808311612bf457829003601f168201915b5050505050908060050154908060060160009054906101000a900460ff16908060060160019054906101000a900473ffffffffffffffffffffffffffffffffffffffff16905088565b60038181548110612c6757fe5b906000526020600020016000915054906101000a900473ffffffffffffffffffffffffffffffffffffffff1681565b6000809054906101000a900473ffffffffffffffffffffffffffffffffffffffff1673ffffffffffffffffffffffffffffffffffffffff163373ffffffffffffffffffffffffffffffffffffffff1614612d58576040517f08c379a000000000000000000000000000000000000000000000000000000000815260040180806020018281038252601b8152602001807f4163636573732064656e6965642c6e6f7420746865206f776e6572000000000081525060200191505060405180910390fd5b612d60615a61565b60001515601360008473ffffffffffffffffffffffffffffffffffffffff1673ffffffffffffffffffffffffffffffffffffffff16815260200190815260200160002060000160149054906101000a900460ff16151514612e29576040517f08c379a00000000000000000000000000000000000000000000000000000000081526004018080602001828103825260138152602001807f41646d696e20616c72656164792065786973740000000000000000000000000081525060200191505060405180910390fd5b80601360008473ffffffffffffffffffffffffffffffffffffffff1673ffffffffffffffffffffffffffffffffffffffff16815260200190815260200160002060008201518160000160006101000a81548173ffffffffffffffffffffffffffffffffffffffff021916908373ffffffffffffffffffffffffffffffffffffffff16021790555060208201518160000160146101000a81548160ff0219169083151502179055509050506001601360008473ffffffffffffffffffffffffffffffffffffffff1673ffffffffffffffffffffffffffffffffffffffff16815260200190815260200160002060000160146101000a81548160ff0219169083151502179055506001600760008282829054906101000a900461ffff160192506101000a81548161ffff021916908361ffff16021790555060018290806001815401808255809150509060018203906000526020600020016000909192909190916101000a81548173ffffffffffffffffffffffffffffffffffffffff021916908373ffffffffffffffffffffffffffffffffffffffff16021790555050600760009054906101000a900461ffff1661ffff167f723c2b747529ca7f5eb53a74808f4a8b9bf264f0fc450fd904900151da74548a83604051808273ffffffffffffffffffffffffffffffffffffffff1673ffffffffffffffffffffffffffffffffffffffff16815260200191505060405180910390a25050565b601360003373ffffffffffffffffffffffffffffffffffffffff1673ffffffffffffffffffffffffffffffffffffffff16815260200190815260200160002060000160149054906101000a900460ff16613103576040517f08c379a00000000000000000000000000000000000000000000000000000000081526004018080602001828103825260188152602001807f4163636573732064656e6965642c6f6e6c792061646d696e000000000000000081525060200191505060405180910390fd5b61310b615a93565b84816000019073ffffffffffffffffffffffffffffffffffffffff16908173ffffffffffffffffffffffffffffffffffffffff1681525050838160200181905250818160600181905250828160400181815250506001600c6000828254019250508190555060058290806001815401808255809150509060018203906000526020600020016000909192909190915090805190602001906131ad929190615af5565b50505050505050565b600f6020528060005260406000206000915090508060000160009054906101000a900473ffffffffffffffffffffffffffffffffffffffff1690806001018054600181600116156101000203166002900480601f0160208091040260200160405190810160405280929190818152602001828054600181600116156101000203166002900480156132885780601f1061325d57610100808354040283529160200191613288565b820191906000526020600020905b81548152906001019060200180831161326b57829003601f168201915b505050505090806002018054600181600116156101000203166002900480601f0160208091040260200160405190810160405280929190818152602001828054600181600116156101000203166002900480156133265780601f106132fb57610100808354040283529160200191613326565b820191906000526020600020905b81548152906001019060200180831161330957829003601f168201915b505050505090806003015490806004018054600181600116156101000203166002900480601f0160208091040260200160405190810160405280929190818152602001828054600181600116156101000203166002900480156133ca5780601f1061339f576101008083540402835291602001916133ca565b820191906000526020600020905b8154815290600101906020018083116133ad57829003601f168201915b5050505050908060050160009054906101000a900460ff16908060050160019054906101000a900473ffffffffffffffffffffffffffffffffffffffff16905087565b600760009054906101000a900461ffff1681565b613429615b75565b600015158160c001511515146134a7576040517f08c379a00000000000000000000000000000000000000000000000000000000081526004018080602001828103825260128152602001807f4361736520616c7265616479206578697374000000000000000000000000000081525060200191505060405180910390fd5b600015158160a00151151514613508576040517f08c379a0000000000000000000000000000000000000000000000000000000008152600401808060200182810382526021815260200180615d536021913960400191505060405180910390fd5b60001515601060008673ffffffffffffffffffffffffffffffffffffffff1673ffffffffffffffffffffffffffffffffffffffff16815260200190815260200160002060050160019054906101000a900460ff161515146135d1576040517f08c379a00000000000000000000000000000000000000000000000000000000081526004018080602001828103825260128152602001807f4361736520616c7265616479206578697374000000000000000000000000000081525060200191505060405180910390fd5b83816000019073ffffffffffffffffffffffffffffffffffffffff16908173ffffffffffffffffffffffffffffffffffffffff1681525050828160800181905250600160086000828254019250508190555060068490806001815401808255809150509060018203906000526020600020016000909192909190916101000a81548173ffffffffffffffffffffffffffffffffffffffff021916908373ffffffffffffffffffffffffffffffffffffffff16021790555050816040518082805190602001908083835b602083106136bd578051825260208201915060208101905060208303925061369a565b6001836020036101000a03801982511681845116808217855250505050505090500191505060405180910390207f2bd543e5acf83b5045c5814b7a0c23036b64d8ddd026614f9fbd6be45494b36a858560405180806020018473ffffffffffffffffffffffffffffffffffffffff1673ffffffffffffffffffffffffffffffffffffffff168152602001806020018381038352600f8152602001807f4e657720636173652061646465643a0000000000000000000000000000000000815250602001838103825284818151815260200191508051906020019080838360005b838110156137b757808201518184015260208101905061379c565b50505050905090810190601f1680156137e45780820380516001836020036101000a031916815260200191505b5094505050505060405180910390a250505050565b60106020528060005260406000206000915090508060000160009054906101000a900473ffffffffffffffffffffffffffffffffffffffff1690806001018054600181600116156101000203166002900480601f0160208091040260200160405190810160405280929190818152602001828054600181600116156101000203166002900480156138cb5780601f106138a0576101008083540402835291602001916138cb565b820191906000526020600020905b8154815290600101906020018083116138ae57829003601f168201915b505050505090806002018054600181600116156101000203166002900480601f0160208091040260200160405190810160405280929190818152602001828054600181600116156101000203166002900480156139695780601f1061393e57610100808354040283529160200191613969565b820191906000526020600020905b81548152906001019060200180831161394c57829003601f168201915b505050505090806003018054600181600116156101000203166002900480601f016020809104026020016040519081016040528092919081815260200182805460018160011615610100020316600290048015613a075780601f106139dc57610100808354040283529160200191613a07565b820191906000526020600020905b8154815290600101906020018083116139ea57829003601f168201915b505050505090806004018054600181600116156101000203166002900480601f016020809104026020016040519081016040528092919081815260200182805460018160011615610100020316600290048015613aa55780601f10613a7a57610100808354040283529160200191613aa5565b820191906000526020600020905b815481529060010190602001808311613a8857829003601f168201915b5050505050908060050160009054906101000a900460ff16908060050160019054906101000a900460ff16905087565b6000809054906101000a900473ffffffffffffffffffffffffffffffffffffffff1673ffffffffffffffffffffffffffffffffffffffff163373ffffffffffffffffffffffffffffffffffffffff1614613b97576040517f08c379a000000000000000000000000000000000000000000000000000000000815260040180806020018281038252601b8152602001807f4163636573732064656e6965642c6e6f7420746865206f776e6572000000000081525060200191505060405180910390fd5b60011515600e60008373ffffffffffffffffffffffffffffffffffffffff1673ffffffffffffffffffffffffffffffffffffffff16815260200190815260200160002060060160009054906101000a900460ff16151514613c60576040517f08c379a000000000000000000000000000000000000000000000000000000000815260040180806020018281038252601d8152602001807f536f7272792c61646472657373206973206e6f742061206c617779657200000081525060200191505060405180910390fd5b6001600a5411613cd8576040517f08c379a000000000000000000000000000000000000000000000000000000000815260040180806020018281038252601e8152602001807f41746c65617374206f6e65206c6177796572206973207265717569726564000081525060200191505060405180910390fd5b6000809054906101000a900473ffffffffffffffffffffffffffffffffffffffff1673ffffffffffffffffffffffffffffffffffffffff168173ffffffffffffffffffffffffffffffffffffffff161415613d9b576040517f08c379a00000000000000000000000000000000000000000000000000000000081526004018080602001828103825260178152602001807f6f776e65722063616e6e6f742062652072656d6f76656400000000000000000081525060200191505060405180910390fd5b600e60008273ffffffffffffffffffffffffffffffffffffffff1673ffffffffffffffffffffffffffffffffffffffff168152602001908152602001600020600080820160006101000a81549073ffffffffffffffffffffffffffffffffffffffff0219169055600182016000613e129190615a19565b600282016000613e229190615a19565b6003820160009055600482016000613e3a9190615a19565b60058201600090556006820160006101000a81549060ff02191690556006820160016101000a81549073ffffffffffffffffffffffffffffffffffffffff021916905550506001600760008282829054906101000a900461ffff160392506101000a81548161ffff021916908361ffff160217905550600a547f0d0f7b6ce33def371544b21d4b578e2d3a928eaf89f87b6430116708dcdf50f782604051808273ffffffffffffffffffffffffffffffffffffffff1673ffffffffffffffffffffffffffffffffffffffff16815260200191505060405180910390a250565b600f60003373ffffffffffffffffffffffffffffffffffffffff1673ffffffffffffffffffffffffffffffffffffffff16815260200190815260200160002060050160009054906101000a900460ff16613fdb576040517f08c379a00000000000000000000000000000000000000000000000000000000081526004018080602001828103825260198152602001807f4163636573732064656e6965642c6f6e6c79206578706572740000000000000081525060200191505060405180910390fd5b613fe3615b75565b600015158160c00151151514614061576040517f08c379a00000000000000000000000000000000000000000000000000000000081526004018080602001828103825260128152602001807f4361736520616c7265616479206578697374000000000000000000000000000081525060200191505060405180910390fd5b600015158160a001511515146140c2576040517f08c379a0000000000000000000000000000000000000000000000000000000008152600401808060200182810382526021815260200180615d536021913960400191505060405180910390fd5b60001515601060008673ffffffffffffffffffffffffffffffffffffffff1673ffffffffffffffffffffffffffffffffffffffff16815260200190815260200160002060050160019054906101000a900460ff1615151461418b576040517f08c379a00000000000000000000000000000000000000000000000000000000081526004018080602001828103825260128152602001807f4361736520616c7265616479206578697374000000000000000000000000000081525060200191505060405180910390fd5b83816000019073ffffffffffffffffffffffffffffffffffffffff16908173ffffffffffffffffffffffffffffffffffffffff1681525050828160800181905250600160086000828254019250508190555060068490806001815401808255809150509060018203906000526020600020016000909192909190916101000a81548173ffffffffffffffffffffffffffffffffffffffff021916908373ffffffffffffffffffffffffffffffffffffffff16021790555050816040518082805190602001908083835b602083106142775780518252602082019150602081019050602083039250614254565b6001836020036101000a03801982511681845116808217855250505050505090500191505060405180910390207f2bd543e5acf83b5045c5814b7a0c23036b64d8ddd026614f9fbd6be45494b36a858560405180806020018473ffffffffffffffffffffffffffffffffffffffff1673ffffffffffffffffffffffffffffffffffffffff168152602001806020018381038352600f8152602001807f4e657720636173652061646465643a0000000000000000000000000000000000815250602001838103825284818151815260200191508051906020019080838360005b83811015614371578082015181840152602081019050614356565b50505050905090810190601f16801561439e5780820380516001836020036101000a031916815260200191505b5094505050505060405180910390a250505050565b600181815481106143c057fe5b906000526020600020016000915054906101000a900473ffffffffffffffffffffffffffffffffffffffff1681565b601360003373ffffffffffffffffffffffffffffffffffffffff1673ffffffffffffffffffffffffffffffffffffffff16815260200190815260200160002060000160149054906101000a900460ff166144b1576040517f08c379a00000000000000000000000000000000000000000000000000000000081526004018080602001828103825260188152602001807f4163636573732064656e6965642c6f6e6c792061646d696e000000000000000081525060200191505060405180910390fd5b60001515601360008673ffffffffffffffffffffffffffffffffffffffff1673ffffffffffffffffffffffffffffffffffffffff16815260200190815260200160002060000160149054906101000a900460ff1615151461455d576040517f08c379a0000000000000000000000000000000000000000000000000000000008152600401808060200182810382526021815260200180615d326021913960400191505060405180910390fd5b614565615bcc565b84816000019073ffffffffffffffffffffffffffffffffffffffff16908173ffffffffffffffffffffffffffffffffffffffff16815250508381602001819052508281604001819052508181606001818152505060016009600082825401925050819055506004849080600181540180825580915050906001820390600052602060002001600090919290919091509080519060200190614607929190615af5565b50505050505050565b6006818154811061461d57fe5b906000526020600020016000915054906101000a900473ffffffffffffffffffffffffffffffffffffffff1681565b60126020528060005260406000206000915090508060000160009054906101000a900473ffffffffffffffffffffffffffffffffffffffff1690806001018054600181600116156101000203166002900480601f01602080910402602001604051908101604052809291908181526020018280546001816001161561010002031660029004801561471e5780601f106146f35761010080835404028352916020019161471e565b820191906000526020600020905b81548152906001019060200180831161470157829003601f168201915b505050505090806002015490806003018054600181600116156101000203166002900480601f0160208091040260200160405190810160405280929190818152602001828054600181600116156101000203166002900480156147c25780601f10614797576101008083540402835291602001916147c2565b820191906000526020600020905b8154815290600101906020018083116147a557829003601f168201915b505050505090806004018054600181600116156101000203166002900480601f0160208091040260200160405190810160405280929190818152602001828054600181600116156101000203166002900480156148605780601f1061483557610100808354040283529160200191614860565b820191906000526020600020905b81548152906001019060200180831161484357829003601f168201915b5050505050908060050160009054906101000a900473ffffffffffffffffffffffffffffffffffffffff16905086565b614898615b75565b600115158160c00151151514614916576040517f08c379a00000000000000000000000000000000000000000000000000000000081526004018080602001828103825260138152602001807f4361736520646f6573206e6f742065786973740000000000000000000000000081525060200191505060405180910390fd5b600015158160a00151151514614977576040517f08c379a0000000000000000000000000000000000000000000000000000000008152600401808060200182810382526021815260200180615d536021913960400191505060405180910390fd5b83816000019073ffffffffffffffffffffffffffffffffffffffff16908173ffffffffffffffffffffffffffffffffffffffff1681525050828160800181905250600160086000828254019250508190555060068490806001815401808255809150509060018203906000526020600020016000909192909190916101000a81548173ffffffffffffffffffffffffffffffffffffffff021916908373ffffffffffffffffffffffffffffffffffffffff16021790555050816040518082805190602001908083835b60208310614a635780518252602082019150602081019050602083039250614a40565b6001836020036101000a03801982511681845116808217855250505050505090500191505060405180910390207f01aac12816b518aedef914f3692014e25fdb1e92ab805b6706f8759b096ade89858560405180806020018473ffffffffffffffffffffffffffffffffffffffff1673ffffffffffffffffffffffffffffffffffffffff16815260200180602001838103835260138152602001807f4e657720726573706f6e73652061646465643a00000000000000000000000000815250602001838103825284818151815260200191508051906020019080838360005b83811015614b5d578082015181840152602081019050614b42565b50505050905090810190601f168015614b8a5780820380516001836020036101000a031916815260200191505b5094505050505060405180910390a250505050565b60085481565b601360003373ffffffffffffffffffffffffffffffffffffffff1673ffffffffffffffffffffffffffffffffffffffff16815260200190815260200160002060000160149054906101000a900460ff16614c67576040517f08c379a00000000000000000000000000000000000000000000000000000000081526004018080602001828103825260188152602001807f4163636573732064656e6965642c6f6e6c792061646d696e000000000000000081525060200191505060405180910390fd5b614c6f615c2e565b614c77615c99565b600015158260a00151151514614cf5576040517f08c379a000000000000000000000000000000000000000000000000000000000815260040180806020018281038252601f8152602001807f416c7265616479207265676973746572656420617320616e206578706572740081525060200191505060405180910390fd5b600015158160c00151151514614d73576040517f08c379a000000000000000000000000000000000000000000000000000000000815260040180806020018281038252601e8152602001807f416c726561647920726567697374657265642061732061206c6177796572000081525060200191505060405180910390fd5b60001515601360008a73ffffffffffffffffffffffffffffffffffffffff1673ffffffffffffffffffffffffffffffffffffffff16815260200190815260200160002060000160149054906101000a900460ff16151514614e1f576040517f08c379a0000000000000000000000000000000000000000000000000000000008152600401808060200182810382526021815260200180615d326021913960400191505060405180910390fd5b87816000019073ffffffffffffffffffffffffffffffffffffffff16908173ffffffffffffffffffffffffffffffffffffffff168152505085816040018190525084816060018181525050868160200181905250838160800181905250828160a001818152505060006008819055506001600a600082825401925050819055506002839080600181540180825580915050906001820390600052602060002001600090919290919091505550866040518082805190602001908083835b60208310614eff5780518252602082019150602081019050602083039250614edc565b6001836020036101000a03801982511681845116808217855250505050505090500191505060405180910390207fe057a0230cfffe284c621612b4046e1a58c7a076e6e78ad80d6d80b3049fc6448585604051808060200180602001848152602001838103835260118152602001807f4e6577206c61777965722061646465643a000000000000000000000000000000815250602001838103825285818151815260200191508051906020019080838360005b83811015614fcd578082015181840152602081019050614fb2565b50505050905090810190601f168015614ffa5780820380516001836020036101000a031916815260200191505b5094505050505060405180910390a25050505050505050565b60136020528060005260406000206000915090508060000160009054906101000a900473ffffffffffffffffffffffffffffffffffffffff16908060000160149054906101000a900460ff16905082565b6002818154811061507157fe5b906000526020600020016000915090505481565b600a5481565b600e60003373ffffffffffffffffffffffffffffffffffffffff1673ffffffffffffffffffffffffffffffffffffffff16815260200190815260200160002060060160009054906101000a900460ff1661514d576040517f08c379a00000000000000000000000000000000000000000000000000000000081526004018080602001828103825260198152602001807f4163636573732064656e6965642c6f6e6c79206c61777965720000000000000081525060200191505060405180910390fd5b615155615b75565b600015158160c001511515146151d3576040517f08c379a00000000000000000000000000000000000000000000000000000000081526004018080602001828103825260128152602001807f4361736520616c7265616479206578697374000000000000000000000000000081525060200191505060405180910390fd5b600015158160a00151151514615234576040517f08c379a0000000000000000000000000000000000000000000000000000000008152600401808060200182810382526021815260200180615d536021913960400191505060405180910390fd5b60001515601060008673ffffffffffffffffffffffffffffffffffffffff1673ffffffffffffffffffffffffffffffffffffffff16815260200190815260200160002060050160019054906101000a900460ff161515146152fd576040517f08c379a00000000000000000000000000000000000000000000000000000000081526004018080602001828103825260128152602001807f4361736520616c7265616479206578697374000000000000000000000000000081525060200191505060405180910390fd5b83816000019073ffffffffffffffffffffffffffffffffffffffff16908173ffffffffffffffffffffffffffffffffffffffff1681525050828160800181905250600160086000828254019250508190555060068490806001815401808255809150509060018203906000526020600020016000909192909190916101000a81548173ffffffffffffffffffffffffffffffffffffffff021916908373ffffffffffffffffffffffffffffffffffffffff16021790555050816040518082805190602001908083835b602083106153e957805182526020820191506020810190506020830392506153c6565b6001836020036101000a03801982511681845116808217855250505050505090500191505060405180910390207f2bd543e5acf83b5045c5814b7a0c23036b64d8ddd026614f9fbd6be45494b36a858560405180806020018473ffffffffffffffffffffffffffffffffffffffff1673ffffffffffffffffffffffffffffffffffffffff168152602001806020018381038352600f8152602001807f4e657720636173652061646465643a0000000000000000000000000000000000815250602001838103825284818151815260200191508051906020019080838360005b838110156154e35780820151818401526020810190506154c8565b50505050905090810190601f1680156155105780820380516001836020036101000a031916815260200191505b5094505050505060405180910390a250505050565b6004818154811061553257fe5b906000526020600020016000915090508054600181600116156101000203166002900480601f0160208091040260200160405190810160405280929190818152602001828054600181600116156101000203166002900480156155d65780601f106155ab576101008083540402835291602001916155d6565b820191906000526020600020905b8154815290600101906020018083116155b957829003601f168201915b505050505081565b600b5481565b601360003373ffffffffffffffffffffffffffffffffffffffff1673ffffffffffffffffffffffffffffffffffffffff16815260200190815260200160002060000160149054906101000a900460ff166156a6576040517f08c379a00000000000000000000000000000000000000000000000000000000081526004018080602001828103825260188152602001807f4163636573732064656e6965642c6f6e6c792061646d696e000000000000000081525060200191505060405180910390fd5b6156ae615c99565b6156b6615c2e565b60001515601360008973ffffffffffffffffffffffffffffffffffffffff1673ffffffffffffffffffffffffffffffffffffffff16815260200190815260200160002060000160149054906101000a900460ff16151514615762576040517f08c379a0000000000000000000000000000000000000000000000000000000008152600401808060200182810382526021815260200180615d326021913960400191505060405180910390fd5b600015158160a001511515146157e0576040517f08c379a00000000000000000000000000000000000000000000000000000000081526004018080602001828103825260148152602001807f45787065727420616c726561647920657869737400000000000000000000000081525060200191505060405180910390fd5b600015158260c0015115151461585e576040517f08c379a000000000000000000000000000000000000000000000000000000000815260040180806020018281038252601e8152602001807f416c726561647920726567697374657265642061732061206c6177796572000081525060200191505060405180910390fd5b86816000019073ffffffffffffffffffffffffffffffffffffffff16908173ffffffffffffffffffffffffffffffffffffffff16815250508581602001819052508381606001818152505084816040018190525082816080018190525060006008819055506001600b60008282540192505081905550856040518082805190602001908083835b6020831061590857805182526020820191506020810190506020830392506158e5565b6001836020036101000a03801982511681845116808217855250505050505090500191505060405180910390207f22f0bfc47334c0286e4af272f4ca61b109ab4159d1f4e395641da60cd90abb2484604051808060200180602001838103835260118152602001807f4e6577206578706572742061646465643a000000000000000000000000000000815250602001838103825284818151815260200191508051906020019080838360005b838110156159cf5780820151818401526020810190506159b4565b50505050905090810190601f1680156159fc5780820380516001836020036101000a031916815260200191505b50935050505060405180910390a250505050505050565b60095481565b50805460018160011615610100020316600290046000825580601f10615a3f5750615a5e565b601f016020900490600052602060002090810190615a5d9190615d0c565b5b50565b6040518060400160405280600073ffffffffffffffffffffffffffffffffffffffff1681526020016000151581525090565b6040518060c00160405280600073ffffffffffffffffffffffffffffffffffffffff16815260200160608152602001600081526020016060815260200160608152602001600073ffffffffffffffffffffffffffffffffffffffff1681525090565b828054600181600116156101000203166002900490600052602060002090601f016020900481019282601f10615b3657805160ff1916838001178555615b64565b82800160010185558215615b64579182015b82811115615b63578251825591602001919060010190615b48565b5b509050615b719190615d0c565b5090565b6040518060e00160405280600073ffffffffffffffffffffffffffffffffffffffff168152602001606081526020016060815260200160608152602001606081526020016000151581526020016000151581525090565b6040518060c00160405280600073ffffffffffffffffffffffffffffffffffffffff16815260200160608152602001606081526020016000815260200160608152602001600073ffffffffffffffffffffffffffffffffffffffff1681525090565b6040518060e00160405280600073ffffffffffffffffffffffffffffffffffffffff16815260200160608152602001606081526020016000815260200160608152602001600015158152602001600073ffffffffffffffffffffffffffffffffffffffff1681525090565b604051806101000160405280600073ffffffffffffffffffffffffffffffffffffffff1681526020016060815260200160608152602001600081526020016060815260200160008152602001600015158152602001600073ffffffffffffffffffffffffffffffffffffffff1681525090565b615d2e91905b80821115615d2a576000816000905550600101615d12565b5090565b9056fe4164647265737320616c726561647920657869737420617320616e2061646d696e4361736520686173206265656e20736574746c65642062792061206c6177796572a265627a7a723158203fd48a88a0e958fc961cc49b273880e9c3d4bf58695d261bf075a1a0e5e795c464736f6c634300050c0032",
  "source": " pragma solidity >=0.4.21 <0.7.0;\r\ncontract Isettle{\r\n    //state variables\r\n    address owner;\r\n    address[] public adminsList;\r\n    uint[] public lawyersList; \r\n    address[] public  expertsList;\r\n    string[] public claimantsList;\r\n    string[] public respondentsList;\r\n    address[] public caseList;\r\n    uint16 public adminIndex;\r\n    uint public caseCount;\r\n    uint public claimantsIndex;\r\n    uint public  lawyersIndex;\r\n    uint public expertsIndex;\r\n    uint public respondentsIndex;\r\n\r\n     struct Admin{\r\n      address adminId;\r\n      bool isAdmin;\r\n\t}\r\n     struct Lawyers{\r\n         address lawyersId;\r\n        string fullName;\r\n        string email;\r\n        uint phoneNumber;\r\n        string speciality;\r\n        uint supremeCourtNo;\r\n        bool isLawyer; \r\n        address caseId;\r\n\t}\r\n     struct  Experts{\r\n         address expertsId;\r\n        string fullName;\r\n        string email;\r\n        uint phoneNumber;\r\n        string speciality;\r\n        bool isExpert; \r\n        address caseId;\r\n\t}\r\n\r\n    struct Case{\r\n\t//number of cases\r\n        address caseId;\r\n        string complaints;//complainants agitation\r\n        string response; //defendants response\r\n        string settlement;//The lawyers(s) settlement \r\n        string caseSpeciality;\r\n        bool isSettled;//To know if a case is settled or not\r\n        bool caseExist;//To know if a case already exist or no\r\n\t}\r\n\t\r\n     struct Complainants{\r\n        address complainantsId;\r\n        string fullName;\r\n        string email;\r\n        uint phoneNumber;\r\n        string expertise;\r\n        address caseId;\r\n\t}\r\n        struct Respondents{\r\n        address respondentsId;\r\n        string fullName;\r\n        uint phoneNumber;\r\n        string email;\r\n        string expertise;\r\n        address caseId;\r\n\t}\r\n    struct Inmates{\r\n    address inmatesId;    \r\n     string fullname;\r\n     uint inmateNumber;\r\n     uint  bailFee;\r\n    }\r\n\r\n     enum caseStatus {pending,ongoing,defaulted,settled}\r\n\t caseStatus public casestatus;\r\n\r\n    mapping (address =>Lawyers)public lawyersmap;\r\n    mapping(address =>Experts)public expertsmap;\r\n    mapping(address =>Case) public casesmap;\r\n    mapping(address =>Complainants) public complainantsmap;\r\n    mapping(address =>Respondents) public respondentsmap;\r\n    mapping(address => Admin) public adminsmap;\r\n\r\n    //MODIFIERS\r\n    modifier onlyOwner(){\r\n\t\trequire(msg.sender == owner, \"Access denied,not the owner\");\r\n\t\t_; \r\n\t}\r\n\r\n    modifier onlyAdmins{\r\n\t    require(adminsmap[msg.sender].isAdmin,\"Access denied,only admin\");\r\n\t    _;\r\n\t}\r\n\r\n modifier onlyExperts(){\r\n\t    require(expertsmap[msg.sender].isExpert,\"Access denied,only expert\");\r\n\t    _;\r\n\t}\r\n\t\r\n\tmodifier onlyLawyers(){\r\n\t    require(lawyersmap[msg.sender].isLawyer,\"Access denied,only lawyer\");\r\n\t    _;\r\n\t}\r\n    //modifier onlyExperts(string memory _speciality){\r\n        //Experts memory expertStruct;\r\n\t    //require(expertsmap[msg.sender].isExpert == true && \r\n        // keccak256(abi.encodePacked(expertStruct.speciality))\r\n         //== keccak256(abi.encodePacked(_speciality)),\"Not an expert or in the field\");\r\n\t   // _;\r\n\t//}\r\n     //modifier onlyLawyers(string memory _speciality){\r\n       // Lawyers memory lawyerStruct;\r\n\t    //require(lawyersmap[msg.sender].isLawyer == true && \r\n         //keccak256(abi.encodePacked(lawyerStruct.speciality))\r\n         //== keccak256(abi.encodePacked(_speciality)),\"Not an expert or in the field\");\r\n\t    //_;\r\n\t//}\r\n    //EVENTS\r\n    event AdminAdded(address newAdmin,uint indexed adminIndex);\r\n    event lawyersAdded(string msg,string indexed fullName,string speciality,uint _supremeCourtNo);\r\n    event expertsAdded(string msg,string indexed fullName,string speciality);\r\n    \r\n     event AdminRemoved(address admin,uint indexed adminIndex);\r\n     event LawyerRemoved(address lawyerAddress,uint indexed lawyersIndex);\r\n     event ExpertRemoved(address expertAddress,uint indexed lawyersIndex);\r\n     \r\n     event CaseAdded(string msg,address _caseId,string _caseSpeciality,string indexed _complaints);\r\n      event ResponseAdded(string msg,address _caseId,string _caseSpeciality,string indexed _response);\r\n     \r\n    //CONSTRUCTOR\r\n\tconstructor() public{\r\n\t\towner = msg.sender;\r\n        addAdmin(owner);\r\n\t\tcasestatus = caseStatus.pending;\r\n\t}\r\n     //FUNCTIONS\r\n      //Allows owner to add an admin\r\n\t function addAdmin(address _newAdmin) public onlyOwner{\r\n\t     Admin memory _admin;\r\n\t\t require(adminsmap[_newAdmin].isAdmin == false,\"Admin already exist\");\r\n\t\t adminsmap[_newAdmin] = _admin;\r\n\t\t adminsmap[_newAdmin].isAdmin = true;\r\n\t\t adminIndex += 1;\r\n\t\t adminsList.push(_newAdmin);\r\n\t\temit AdminAdded(_newAdmin,adminIndex);\r\n       } \r\n       \r\n       //Allows admins to add lawyers\r\n         function addLawyer(address _lawyersId,\r\n                            string memory _fullName,\r\n                            string memory _email,\r\n                            uint _phoneNumber,\r\n                            string memory _speciality,\r\n                            uint _supremeCourtNo)\r\n           public onlyAdmins {\r\n               Experts memory _expertStruct;\r\n               Lawyers memory _lawyerStruct;\r\n               require(_expertStruct.isExpert == false,\"Already registered as an expert\");\r\n               require(_lawyerStruct.isLawyer == false,\"Already registered as a lawyer\");\r\n               require(adminsmap[_lawyersId].isAdmin == false,\"Address already exist as an admin\");\r\n               _lawyerStruct.lawyersId =_lawyersId;\r\n                _lawyerStruct.email =_email;\r\n                _lawyerStruct.phoneNumber = _phoneNumber;\r\n               _lawyerStruct.fullName =_fullName;\r\n               _lawyerStruct.speciality =_speciality;\r\n               _lawyerStruct.supremeCourtNo =_supremeCourtNo;\r\n               caseCount = 0;\r\n               lawyersIndex += 1;\r\n\t\t       lawyersList.push(_supremeCourtNo);\r\n       emit lawyersAdded(\"New lawyer added:\",_fullName,_speciality,_supremeCourtNo);\r\n}\r\n             //Allows admin to add  experts\r\n            function addExpert(address _expertsId,\r\n                    string memory _fullName,\r\n                    string memory _email,\r\n                    uint _phoneNumber,\r\n                    string memory _speciality\r\n                    )\r\n                    public onlyAdmins {\r\n               Lawyers memory _lawyerStruct;\r\n               Experts memory _expertStruct;\r\n               require(adminsmap[_expertsId].isAdmin == false,\"Address already exist as an admin\");\r\n                require(_expertStruct.isExpert == false,\"Expert already exist\");\r\n                require(_lawyerStruct.isLawyer == false,\"Already registered as a lawyer\");\r\n                _expertStruct.expertsId =  _expertsId;\r\n               _expertStruct.fullName =_fullName;\r\n               _expertStruct.phoneNumber =_phoneNumber;\r\n               _expertStruct.email =_email;\r\n               _expertStruct.speciality =_speciality;\r\n               caseCount = 0;\r\n               expertsIndex += 1;\r\n               emit expertsAdded(\"New expert added:\",_fullName,_speciality);        \r\n}\r\n function addComplainant(address _complainantsId,\r\n                         string memory _fullName,\r\n                         string memory _email,\r\n                         uint _phoneNumber)\r\n           public onlyAdmins {\r\n             //Case memory caseStruct;\r\n             require(adminsmap[_complainantsId].isAdmin == false,\"Address already exist as an admin\");\r\n            Complainants memory complainantStruct;\r\n            complainantStruct.complainantsId =_complainantsId;\r\n            complainantStruct.fullName =_fullName;\r\n            complainantStruct.email =_email;\r\n            complainantStruct.phoneNumber =_phoneNumber;\r\n            claimantsIndex += 1;\r\n\t\t    claimantsList.push(_fullName);\r\n      // emit lawyersAdded(\"New lawyer added:\",_fullName,_speciality,_supremeCourtNo);\r\n           }\r\n            function addRespondents(address _respondentsId,\r\n                                    string memory _fullName,\r\n                                    uint _phoneNumber,\r\n                                    string memory _email)\r\n                         public onlyAdmins {\r\n                         Respondents memory respondentStruct;\r\n                         respondentStruct.respondentsId =_respondentsId;\r\n                        respondentStruct.fullName =_fullName;\r\n                        respondentStruct.email =_email;\r\n                        respondentStruct.phoneNumber =_phoneNumber;\r\n                        respondentsIndex += 1;\r\n\t\t                 respondentsList.push(_email);\r\n                        //emit respondentsAdded(\"New lawyer added:\",_fullName,_speciality,_supremeCourtNo);\r\n        }\r\n        \r\n         //Allow the current owner to remove an Admin\r\n\t   function removeAdmin(address _adminAddress) public onlyOwner{ \r\n\t\t   \t\t require(adminsmap[_adminAddress].isAdmin == true,\"Sorry,address is not an admin\");\r\n\t\t\t\t require(adminIndex > 1,\"Atleast one admin is required\");\r\n\t\t\t\t require(_adminAddress != owner,\"owner cannot be removed\");\r\n\t\t\t\t delete adminsmap[_adminAddress];\r\n\t\t\t\t adminIndex -= 1;\r\n\t\t\t\t emit AdminRemoved( _adminAddress,adminIndex);\r\n\t   } \r\n        \r\n         function removeLawyer(address _lawyerAddress) public onlyOwner{ \r\n\t\t   \t\t require(lawyersmap[_lawyerAddress].isLawyer == true,\"Sorry,address is not a lawyer\");\r\n\t\t\t\t require(lawyersIndex > 1,\"Atleast one lawyer is required\");\r\n\t\t\t\t require(_lawyerAddress != owner,\"owner cannot be removed\");\r\n\t\t\t\t delete lawyersmap[_lawyerAddress];\r\n\t\t\t\t adminIndex -= 1;\r\n\t\t\t\t emit LawyerRemoved( _lawyerAddress,lawyersIndex);\r\n\t   } \r\n\t   \r\n\t    function removeExpert(address _expertAddress) public onlyOwner{ \r\n\t\t   \t\t require(expertsmap[_expertAddress].isExpert == true,\"Sorry,address is not an expert\");\r\n\t\t\t\t require(expertsIndex > 1,\"Atleast one expert is required\");\r\n\t\t\t\t require(_expertAddress != owner,\"owner cannot be removed\");\r\n\t\t\t\t delete expertsmap[_expertAddress];\r\n\t\t\t\t adminIndex -= 1;\r\n\t\t\t\t emit ExpertRemoved( _expertAddress,expertsIndex);\r\n\t   } \r\n\t   \r\n\t    function lodgeComplaint(address _caseId,string memory _caseSpeciality,string memory _complaint)public \r\n\t     {\r\n               Case memory _caseStruct;\r\n               require(_caseStruct.caseExist == false,\"Case already exist\");\r\n               require(_caseStruct.isSettled == false,\"Case has been settled by a lawyer\");\r\n               require(casesmap[_caseId].caseExist == false,\"Case already exist\");\r\n               _caseStruct.caseId = _caseId;\r\n               _caseStruct.caseSpeciality =_caseSpeciality;\r\n               caseCount += 1;\r\n\t\t       caseList.push(_caseId);\r\n       emit CaseAdded(\"New case added:\",_caseId,_caseSpeciality,_complaint);\r\n}\r\n\r\n\t    function respondToComplaint(address _caseId,string memory _caseSpeciality,string memory _response)public {\r\n               Case memory _caseStruct;\r\n               require(_caseStruct.caseExist == true,\"Case does not exist\");\r\n               require(_caseStruct.isSettled == false,\"Case has been settled by a lawyer\");\r\n               _caseStruct.caseId = _caseId;\r\n               _caseStruct.caseSpeciality =_caseSpeciality;\r\n               caseCount += 1;\r\n\t\t       caseList.push(_caseId);\r\n               emit ResponseAdded(\"New response added:\",_caseId,_caseSpeciality,_response);\r\n        }\r\n\r\n\r\n\t    function analyseCase(address _caseId,string memory _caseSpeciality,string memory _complaint)public onlyExperts {\r\n               Case memory _caseStruct;\r\n               require(_caseStruct.caseExist == false,\"Case already exist\");\r\n               require(_caseStruct.isSettled == false,\"Case has been settled by a lawyer\");\r\n               require(casesmap[_caseId].caseExist == false,\"Case already exist\");\r\n               _caseStruct.caseId = _caseId;\r\n               _caseStruct.caseSpeciality =_caseSpeciality;\r\n               caseCount += 1;\r\n\t\t       caseList.push(_caseId);\r\n               emit CaseAdded(\"New case added:\",_caseId,_caseSpeciality,_complaint);\r\n        }\r\n\r\n\r\n\t    function resolveDispute(address _caseId,string memory _caseSpeciality,string memory _complaint)public onlyLawyers {\r\n               Case memory _caseStruct;\r\n               require(_caseStruct.caseExist == false,\"Case already exist\");\r\n               require(_caseStruct.isSettled == false,\"Case has been settled by a lawyer\");\r\n               require(casesmap[_caseId].caseExist == false,\"Case already exist\");\r\n               _caseStruct.caseId = _caseId;\r\n               _caseStruct.caseSpeciality =_caseSpeciality;\r\n               caseCount += 1;\r\n\t\t       caseList.push(_caseId);\r\n               emit CaseAdded(\"New case added:\",_caseId,_caseSpeciality,_complaint);\r\n        }\r\n\r\n\t} ",
  "sourcePath": "C:/users/pc/documents/projects/isettle/contracts/isettle.sol",
  "compiler": {
    "name": "solc",
    "version": "0.5.12+commit.7709ece9.Emscripten.clang"
  },
  "schemaVersion": "3.0.19",
  "updatedAt": "2020-03-12T07:20:51.697Z",
  "devdoc": {
    "methods": {}
  },
  "userdoc": {
    "methods": {}
  }
}